:100000000C9462000C948A000C948A000C948A0070
:100010000C948A000C948A000C948A000C948A0038
:100020000C948A000C948A000C948A000C948A0028
:100030000C948A000C948A000C948A000C948A0018
:100040000C940B040C948A000C94D9030C94B30305
:100050000C948A000C948A000C948A000C948A00F8
:100060000C948A000C948A000000000024002700F1
:100070002A0000000000250028002B0000000000DE
:1000800023002600290004040404040404040202DA
:100090000202020203030303030301020408102007
:1000A0004080010204081020010204081020000012
:1000B0000008000201000003040700000000000027
:1000C0000000550411241FBECFEFD8E0DEBFCDBF26
:1000D00011E0A0E0B1E0E8E4FEE002C005900D927E
:1000E000A435B107D9F722E0A4E5B1E001C01D9223
:1000F000A535B207E1F710E0C2E6D0E004C02197D1
:10010000FE010E941707C136D107C9F70E94AD044E
:100110000C9422070C940000CF92DF92EF92FF9292
:100120000F931F93CF93DF936C017A018B01C0E093
:10013000D0E0CE15DF0589F0D8016D918D01D60193
:10014000ED91FC910190F081E02DC6010995892B7C
:1001500011F47E0102C02196ECCFC701DF91CF914F
:100160001F910F91FF90EF90DF90CF900895089529
:1001700080E090E00895FC01538D448D252F30E000
:10018000842F90E0821B930B541710F0CF960895A4
:1001900001970895FC01918D828D981761F0828DF1
:1001A000DF01A80FB11D5D968C91928D9F5F9F73AB
:1001B000928F90E008958FEF9FEF0895FC01918D4D
:1001C000828D981731F0828DE80FF11D858D90E0BA
:1001D00008958FEF9FEF0895FC01918D228D892F57
:1001E00090E0805C9F4F821B91098F73992708953F
:1001F0008AE691E00E94EC0021E0892B09F420E0DE
:10020000822F0895FC01848DDF01A80FB11DA35A30
:10021000BF4F2C91848D90E001968F739927848F26
:10022000A689B7892C93A089B1898C9180648C931D
:10023000938D848D981306C00288F389E02D808108
:100240008F7D80830895EF92FF920F931F93CF933A
:10025000DF93EC0181E0888F9B8D8C8D981305C016
:10026000E889F989808185FD24C0F62E0B8D10E088
:100270000F5F1F4F0F731127E02E8C8DE8120CC0FB
:100280000FB607FCFACFE889F989808185FFF5CFA1
:10029000CE010E940201F1CF8B8DFE01E80FF11D0E
:1002A000E35AFF4FF0820B8FEA89FB8980818062DD
:1002B00007C0EE89FF896083E889F98980818064BD
:1002C000808381E090E0DF91CF911F910F91FF90AB
:1002D000EF900895CF93DF93EC01888D8823C9F0C8
:1002E000EA89FB89808185FD05C0A889B9898C913F
:1002F00086FD0FC00FB607FCF5CF808185FFF2CFDA
:10030000A889B9898C9185FFEDCFCE010E940201A9
:10031000E7CFDF91CF91089580E090E0892B29F01D
:100320000E94F80081110C9400000895833081F040
:1003300028F4813099F08230A1F008958730A9F037
:100340008830B9F08430D1F4809180008F7D03C073
:10035000809180008F7780938000089584B58F7797
:1003600002C084B58F7D84BD08958091B0008F77E1
:1003700003C08091B0008F7D8093B00008951F93DB
:10038000CF93DF93282F30E0F901E255FF4F84919E
:10039000F901E656FF4FD491F901EA57FF4FC49196
:1003A000CC23C9F0162F81110E949601EC2FF0E0AA
:1003B000EE0FFF1FEE58FF4FA591B4918FB7F89441
:1003C000111105C09C91ED2FE095E92302C0EC913D
:1003D000ED2BEC938FBFDF91CF911F910895CF93B9
:1003E000DF9390E0FC01E656FF4F2491FC01EA57B1
:1003F000FF4F8491882361F190E0880F991FFC01E1
:10040000E859FF4FC591D491FC01EE58FF4FA591DB
:10041000B491611109C09FB7F89488812095822317
:100420008883EC912E230BC0623061F49FB7F8945F
:100430003881822F809583238883EC912E2B2C93F7
:100440009FBF06C08FB7F894E8812E2B28838FBFFB
:10045000DF91CF9108951F93CF93DF93182FEB0176
:1004600061E00E94EF01209711F460E004C0CF3FEB
:10047000D10539F461E0812FDF91CF911F910C9468
:10048000BF01E12FF0E0E255FF4FE491E330F9F0D6
:1004900048F4E130B9F0E230A1F584B5806284BD62
:1004A000C8BD34C0E730E9F0E83019F1E43049F56F
:1004B00080918000806280938000D0938B00C093F5
:1004C0008A0024C084B5806884BDC7BD1FC08091E8
:1004D0008000806880938000D0938900C09388005A
:1004E00015C08091B00080688093B000C093B300C5
:1004F0000DC08091B00080628093B000C093B400C2
:1005000005C0C038D1050CF0B5CFAFCFDF91CF918A
:100510001F910895CF93DF93C2E6D1E06FEF70E0B3
:100520008A810E942B026FEF70E08C810E942B0267
:100530006FEF70E08E81DF91CF910C942B023FB76B
:10054000F8948091590190915A01A0915B01B0916A
:100550005C0126B5A89B05C02F3F19F00196A11D8F
:10056000B11D3FBFBA2FA92F982F8827820F911D49
:10057000A11DB11DBC01CD0142E0660F771F881F90
:10058000991F4A95D1F708958F929F92AF92BF928B
:10059000CF92DF92EF92FF926B017C010E949F024B
:1005A0004B015C01C114D104E104F104F1F00E949B
:1005B0009F02DC01CB0188199909AA09BB09883E71
:1005C0009340A105B10570F321E0C21AD108E108FA
:1005D000F10888EE880E83E0981EA11CB11CC1149E
:1005E000D104E104F10419F7DDCFFF90EF90DF9023
:1005F000CF90BF90AF909F908F900895EF92FF9211
:100600000F931F93CF93DF93EC01842F1B861A86E1
:10061000198218821E8A1F8A188E198E7F836E8314
:100620004C875D873F872E87198B088BFB8AEA8A68
:1006300061E00E94EF0161E08E850E94EF0161E0C0
:1006400088890E94EF0161E08A890E94EF011D8A7A
:100650001C8A84E090E099878887DF91CF911F9171
:100660000F91FF90EF900895CF92DF92EF92FF925B
:100670006C0161E088E00E94BF0160E089E00E94B7
:10068000BF0160E08AE00E94BF0160E08BE00E9451
:10069000BF010D2C000CEE08FF08C701B6010E9437
:1006A000C40260E088E00E94BF0161E089E00E942E
:1006B000BF0160E08AE00E94BF0160E08BE00E9421
:1006C000BF01C701B6010E94C40260E088E00E9439
:1006D000BF0160E089E00E94BF0161E08AE00E9402
:1006E000BF0160E08BE00E94BF01C701B6010E941C
:1006F000C40260E088E00E94BF0160E089E00E94DF
:10070000BF0160E08AE00E94BF0161E08BE00E94CF
:10071000BF01C701B601FF90EF90DF90CF900C941E
:10072000C402009769F0FC0101900020E9F73197BD
:10073000AF01481B590BBC018AE691E00C948C0078
:1007400080E090E00895CF93DF930E949103EC0145
:1007500082E191E00E9491038C0F9D1FDF91CF9168
:1007600008950E941D071F920F920FB60F92112439
:100770002F933F934F935F936F937F938F939F93A9
:10078000AF93BF93EF93FF938AE691E00E9402013B
:10079000FF91EF91BF91AF919F918F917F916F9159
:1007A0005F914F913F912F910F900FBE0F901F902F
:1007B00018951F920F920FB60F9211242F938F93BB
:1007C0009F93EF93FF93E0917A01F0917B018081F9
:1007D000E0918001F091810182FD12C090818091B1
:1007E00083018F5F8F7320918401821751F0E09114
:1007F0008301F0E0E659FE4F958F8093830101C09D
:100800008081FF91EF919F918F912F910F900FBE5B
:100810000F901F9018951F920F920FB60F921124F0
:100820002F933F938F939F93AF93BF9380915501E5
:1008300090915601A0915701B09158013091540107
:1008400023E0230F2D3720F40196A11DB11D05C013
:1008500026E8230F0296A11DB11D20935401809319
:10086000550190935601A0935701B0935801809180
:10087000590190915A01A0915B01B0915C010196E0
:10088000A11DB11D8093590190935A01A0935B0162
:10089000B0935C01BF91AF919F918F913F912F9148
:1008A0000F900FBE0F901F901895EF92FF920F932D
:1008B0001F93EAE6F1E01382128288EE93E0A0E053
:1008C000B0E084839583A683B78384E091E091832D
:1008D000808385EC90E09587848784EC90E097870F
:1008E000868780EC90E0918B808B81EC90E0938BFD
:1008F000828B82EC90E0958B848B86EC90E0978BDA
:10090000868B118E128E138E148E8BE0E82EF12CB6
:100910000AE010E029E030E048E050E068EC70E0E8
:1009200087E092E00E94FE0229E030E048E050E0DB
:1009300068EC70E081E292E00E94FE0229E030E083
:1009400048E050E068EC70E08BE392E00E94FE0229
:100950001F910F91FF90EF900895CF93DF93CDB744
:10096000DEB7A1970FB6F894DEBF0FBECDBF789467
:1009700084B5826084BD84B5816084BD85B58260A4
:1009800085BD85B5816085BD80916E008160809355
:100990006E001092810080918100826080938100BE
:1009A00080918100816080938100809180008160CE
:1009B000809380008091B10084608093B100809129
:1009C000B00081608093B00080917A008460809351
:1009D0007A0080917A00826080937A0080917A0018
:1009E000816080937A0080917A00806880937A0099
:1009F0001092C100E0917A01F0917B0182E0808346
:100A0000E0917601F09177011082E0917801F09108
:100A100079018FEC808310928201E0917E01F09148
:100A20007F0186E08083E0917C01F0917D018081EF
:100A300080618083E0917C01F0917D0180818860FC
:100A40008083E0917C01F0917D01808180688083CA
:100A5000E0917C01F0917D0180818F7D808360E059
:100A600082E00E94EF01109263011092620161E046
:100A700088E00E94EF0161E089E00E94EF0161E0FF
:100A80008AE00E94EF0161E08BE00E94EF018FE0BD
:100A900090E090936501809364018EE090E09093E4
:100AA00067018093660180E190E0909369018093F3
:100AB000680160E070E08FE00E942B0260E070E06F
:100AC000809166010E942B0260E070E080916801D5
:100AD0000E942B029CE9E92E90E0F92E28E8C22E14
:100AE00020E0D22E3AE0832E912CA12CB12C33247D
:100AF0003394E0EBF0E08491F7010491F601149156
:100B0000112391F081110E949601E12FF0E0EE0F88
:100B1000FF1FE458FF4FA591B4918C91082391E0F9
:100B200080E021F490E002C090E080E090936001CA
:100B30008093610185E191E00E94910320915E0123
:100B400030915F012901330F6608770877FE26C0D0
:100B5000E0916A01F0916B010190F081E02D6DE26E
:100B60008AE691E0099522273327A901241935093E
:100B70004609570919A28E010F5D1F4FCA01B9011D
:100B8000A50194010E94F506605DF80162938F0152
:100B9000211531054105510589F715C0A3019201C1
:100BA00019A28E010F5D1F4FCA01B901A501940161
:100BB0000E94F506605DF80162938F0121153105F1
:100BC0004105510589F7C8010E94910382E191E036
:100BD0000E9491038091600190916101019759F405
:100BE00080915E0190915F01019690935F018093E7
:100BF0005E0130925D0180915E0190915F010397EB
:100C000021F410925F0110925E016AE070E080E0D2
:100C100090E00E94C40280915D01882309F4E2C043
:100C200084E291E00E94A30310925D0180915E0135
:100C300090915F0181309105B9F08230910509F4FE
:100C400073C0892B09F0CEC082E391E00E94A30318
:100C50000E948A020CE211E085E090E00E943403D9
:100C600001501109C9F7BEC08DE391E00E94A303B2
:100C700008EC10E0B801809164010E942B0285E02D
:100C800090E00E94340385E090E00E94340385E008
:100C900090E00E94340385E090E00E94340360E01D
:100CA00070E0809164010E942B02B801809166017E
:100CB0000E942B0285E090E00E94340385E090E0E2
:100CC0000E94340385E090E00E94340385E090E0C8
:100CD0000E94340360E070E0809166010E942B0264
:100CE000B801809168010E942B0285E090E00E948B
:100CF000340385E090E00E94340385E090E00E9498
:100D0000340385E090E00E94340360E070E080915D
:100D100068010E942B020E5F1F4F0A3F110509F068
:100D2000A9CF0E948A025EC088E491E00E94A303DA
:100D300008EC10E0B801809164010E942B0282E06F
:100D400090E00E94340382E090E00E94340382E04D
:100D500090E00E94340382E090E00E94340360E05F
:100D600070E0809164010E942B02B80180916601BD
:100D70000E942B0282E090E00E94340382E090E027
:100D80000E94340382E090E00E94340382E090E00D
:100D90000E94340360E070E0809166010E942B02A3
:100DA000B801809168010E942B0282E090E00E94CD
:100DB000340382E090E00E94340382E090E00E94DD
:100DC000340382E090E00E94340360E070E08091A0
:100DD00068010E942B020E5F1F4F0A3F110509F0A8
:100DE000A9CF9FCF0E948C0184CEA1E21A2EAA1B0C
:100DF000BB1BFD010DC0AA1FBB1FEE1FFF1FA217CB
:100E0000B307E407F50720F0A21BB30BE40BF50BC7
:100E1000661F771F881F991F1A9469F76095709550
:100E2000809590959B01AC01BD01CF010895EE0F17
:100E3000FF1F0590F491E02D099481E090E0F89473
:080E40000C942207F894FFCF87
:100E48000000000023018C00BB006A01EC00CA000E
:100E5800DE000D0A007072657373436F756E7465FA
:100E6800723A2000627574746F6E507265737365A0
:100E780064006D6E6720636173652030006D6E6776
:100E880020636173652031006D6E6720636173654F
:040E98002032000004
:107E0000112484B714BE81FFF0D085E080938100F7
:107E100082E08093C00088E18093C10086E0809377
:107E2000C20080E18093C4008EE0C9D0259A86E02C
:107E300020E33CEF91E0309385002093840096BBD3
:107E4000B09BFECF1D9AA8958150A9F7CC24DD24C4
:107E500088248394B5E0AB2EA1E19A2EF3E0BF2EE7
:107E6000A2D0813461F49FD0082FAFD0023811F036
:107E7000013811F484E001C083E08DD089C08234E0
:107E800011F484E103C0853419F485E0A6D080C0E4
:107E9000853579F488D0E82EFF2485D0082F10E0AE
:107EA000102F00270E291F29000F111F8ED06801E7
:107EB0006FC0863521F484E090D080E0DECF843638
:107EC00009F040C070D06FD0082F6DD080E0C81688
:107ED00080E7D80618F4F601B7BEE895C0E0D1E017
:107EE00062D089930C17E1F7F0E0CF16F0E7DF06D8
:107EF00018F0F601B7BEE89568D007B600FCFDCFD4
:107F0000A601A0E0B1E02C9130E011968C91119780
:107F100090E0982F8827822B932B1296FA010C0160
:107F200087BEE89511244E5F5F4FF1E0A038BF0790
:107F300051F7F601A7BEE89507B600FCFDCF97BE46
:107F4000E89526C08437B1F42ED02DD0F82E2BD052
:107F50003CD0F601EF2C8F010F5F1F4F84911BD097
:107F6000EA94F801C1F70894C11CD11CFA94CF0C13
:107F7000D11C0EC0853739F428D08EE10CD085E9AC
:107F80000AD08FE07ACF813511F488E018D01DD067
:107F900080E101D065CF982F8091C00085FFFCCF94
:107FA0009093C60008958091C00087FFFCCF809118
:107FB000C00084FD01C0A8958091C6000895E0E648
:107FC000F0E098E1908380830895EDDF803219F02E
:107FD00088E0F5DFFFCF84E1DECF1F93182FE3DFCA
:107FE0001150E9F7F2DF1F91089580E0E8DFEE27F6
:047FF000FF270994CA
:027FFE00040479
:0400000300007E007B
:00000001FF